S06C0000433A5C55736572735C68777772696768745C446F776E6C6F6164735C656C657661746F722D73696D756C6174696F6E2D6D61737465725C656C657661746F722D73696D756C6174696F6E2D6D61737465725C70726F6A6563745C62696E5C50726F6A6563742E61627380
S123C000CF050016C01E16C0F616C1A716C2C016C37E16C43C16C4B1862D810027F416C055
S123C020393D3B200ECE02BC098E00002EFAEE80096E80EC802EEE3A3DC6FF7B027479023D
S123C040701C025270C6058707D81C025010C6328707CFC7877C0500C6037B0270072307D2
S123C06021071FC63C8716C0E7C6108716C0E7C6018716C0E7C6068716C0E7C60C8716C0CB
S123C080E73D16C0C3C6058706C0226CAD6982C6808716C0E72023E682C1102606C6C08762
S123C0A016C0E76282C601877C0500EE80E6007B027016C0C3EE80086E80EE80E60026D77D
S123C0C01B833DFC050027061C02504020041D025040C6018716C0221D025010C6018716A9
S123C0E0C0221C0250103D3BC7877C0500E6817B027007CF3A3D180B280502180B5705051E
S123C100180B650506180B6C0507180B630508180B6F0509180B6D050A180B65050B180B60
S123C12020050C180B20050D180B54050E180B6F050F180B200510180B200511180B540518
S123C14012180B680513180B650514180B200515180B200516180B200517180B20051818F3
S123C1600B200519180B45051A180B6C051B180B65051C180B76051D180B61051E180B749A
S123C180051F180B6F0520180B720521180B200522180B200523180B200524180B00052577
S123C1A0CC050516C08B3D180B000526180B0F0502180B3E0527180B000528180B3E050538
S123C1C0180B440506180B410507180B540508180B450509180B3A050A180B20050B180B9D
S123C1E020050C180B2F050D180B20050E180B20050F180B2F0510180B200511180B2005F1
S123C20012180B200513180B200514180B200515180B540516180B490517180B4D05181835
S123C2200B450519180B3A051A180B20051B180B20051C180B3A051D180B20051E180B2021
S123C240051F180B200520180B410521180B4D0522180B500523180B4D0524180B000525AC
S123C260180B110529CC050516C08BCD000016C527B6052DB6052616C43D8E00012723B1E8
S123C280052627EA16C556F605267A0526180B20052716C5567B0526180B3E0527CE0000C6
S123C2A020CCB605268100260B16C750028D000226BC200B16C702028D000226B120003D8C
S123C2C0180B080526180B0F0502180B000527180B550505180B530506180B450507180BE2
S123C2E0520508180B4E0509180B41050A180B4D050B180B45050C180B3A050D180B200539
S123C3000E180B20050F180B200510180B200511180B200512180B200513180B20051418DA
S123C3200B500515180B410516180B530517180B530518180B570519180B4F051A180B5242
S123C340051B180B44051C180B3A051D180B20051E180B20051F180B200520180B20052114
S123C360180B200522180B200523180B200524180B000525CC050516C08B16C7A23D180B15
S123C3800A0526180B0F0502180B000528180B530505180B450506180B430507180B5205FC
S123C3A008180B450509180B54050A180B20050B180B49050C180B44050D180B3A050E18A4
S123C3C00B20050F180B200510180B200511180B200512180B200513180B200514180B50E5
S123C3E00515180B410516180B530517180B530518180B570519180B4F051A180B52051BBD
S123C400180B44051C180B3A051D180B20051E180B20051F180B200520180B200521180B50
S123C420200522180B200523180B200524180B000525CC050516C08B16C8263D3D3637B6B5
S123C4400526F6052D1E05292223C10C260B81102D4080107A05262039C10E261081102CA8
S123C460318B107A0526202A1E05291125C10A260E8100271D81102719437A05262013C10A
S123C4800B260F810F270B811F27078B017A05262000C1002603CE000133323D70B0D0E04C
S123C4A0EB777B7DB7BBBDD7DBDDE7ED7EBEDEEE001C024AFF1C026AF01C026DF01C026CA0
S123C4C00F1D052AFF1D052BFF1D052CFF1D02480079052C16C4FD1F052AFF081D052BF0EB
S123C4E07B052C3D1D052B0FFA052B7B052B1C052AFF20E034CE03E80926FD303DCEC49C20
S123C500A63027F97A026816C4F4B602687A052C840F810F27EACDC4A0C600A67027DE520C
S123C520B1052C26F6533D343579052D16C4B1C10F270EC10A2711C10B27147B052D3130AD
S123C5403DC6FF7B024820DFC6FA7B024820D8C6FB7B024820D1373436F60526C10026096B
S123C560180C0527050506C6F8C1012609180C0527050606C6F8C1022609180C052705073B
S123C58006C6F8C1032609180C0527050806C6F8C1042609180C0527050906C6F8C10526BD
S123C5A009180C0527050A06C6F8C1062609180C0527050B06C6F8C1072609180C052705E5
S123C5C00C06C6F8C1082609180C0527050D06C6F8C1092609180C0527050E06C6F8C10A7E
S123C5E02609180C0527050F06C6F8C10B2609180C0527051006C6F8C10C2609180C052770
S123C600051106C6F8C10D2609180C0527051206C6F8C10E2609180C0527051306C6F8C129
S123C6200F2609180C0527051406C6F8C1102609180C0527051506C6F8C1112609180C0533
S123C64027051606C6F8C1122609180C0527051706C6F8C1132609180C0527051806C6F86A
S123C660C1142609180C0527051906C6F8C1152609180C0527051A06C6F8C1162609180C1E
S123C6800527051B06C6F8C1172609180C0527051C06C6F8C1182609180C0527051D06C604
S123C6A0F8C1192609180C0527051E06C6F8C11A2609180C0527051F06C6F8C11B260918D9
S123C6C00C0527052006C6F8C11C2608180C052705212024C11D2608180C052705222018B5
S123C6E0C11E2608180C05270523200CC11F2608180C052705242000CC050516C08B323045
S123C700333D3586167A0526CD052E16C527B6052D8B307A0527810027F116C43D8100278C
S123C720EACE052EB6052681152E05180B16052681182605180B190526811E2602313D1686
S123C740C556F60526527B0526B6052D6A3020BB3586067A0526CD053416C527B6052D8B63
S123C760307A0527810027A3862616C43D812626E8862681052E05180B06052681082605AF
S123C780180B090526810B2605180B0C052681102D02313D16C556C626527B05267A053437
S123C7A020B7180B090526CD053C16C527862D7A0527810027F4862616C43D812626EB8641
S123C7C02681082E05180B090526810F2F05180B09052681102607180B190526200D16C5D4
S123C7E056C626527B0526862D20BF16C527862D7A0527810027F4862616C43D812626EBF7
S123C800862681182E05180B190526811F2F05180B190526812026013D16C556C626527B0B
S123C8200526862D208416C527862D7A0527810027F4862616C43D812626EB8626810A2E9B
S123C84005180B0B0526810E2D05180B0B0526810E2602200D16C556C626527B0526862DB0
S123C86020C416C527862D7A0527810027F4862616C43D812626EB8626810A2E05180B0BC6
S120C8800526810E2D05180B0B0526810E26013D16C556C626527B0526862D20C5B2
S105FFFEC0003D
S9030000FC
